{
  "contractName": "StarNotary",
  "abi": [
    {
      "anonymous": false,
      "inputs": [
        {
          "indexed": true,
          "internalType": "address",
          "name": "owner",
          "type": "address"
        },
        {
          "indexed": true,
          "internalType": "address",
          "name": "approved",
          "type": "address"
        },
        {
          "indexed": true,
          "internalType": "uint256",
          "name": "tokenId",
          "type": "uint256"
        }
      ],
      "name": "Approval",
      "type": "event"
    },
    {
      "anonymous": false,
      "inputs": [
        {
          "indexed": true,
          "internalType": "address",
          "name": "owner",
          "type": "address"
        },
        {
          "indexed": true,
          "internalType": "address",
          "name": "operator",
          "type": "address"
        },
        {
          "indexed": false,
          "internalType": "bool",
          "name": "approved",
          "type": "bool"
        }
      ],
      "name": "ApprovalForAll",
      "type": "event"
    },
    {
      "anonymous": false,
      "inputs": [
        {
          "indexed": true,
          "internalType": "address",
          "name": "from",
          "type": "address"
        },
        {
          "indexed": true,
          "internalType": "address",
          "name": "to",
          "type": "address"
        },
        {
          "indexed": true,
          "internalType": "uint256",
          "name": "tokenId",
          "type": "uint256"
        }
      ],
      "name": "Transfer",
      "type": "event"
    },
    {
      "constant": false,
      "inputs": [
        {
          "internalType": "address",
          "name": "to",
          "type": "address"
        },
        {
          "internalType": "uint256",
          "name": "tokenId",
          "type": "uint256"
        }
      ],
      "name": "approve",
      "outputs": [],
      "payable": false,
      "stateMutability": "nonpayable",
      "type": "function"
    },
    {
      "constant": true,
      "inputs": [
        {
          "internalType": "address",
          "name": "owner",
          "type": "address"
        }
      ],
      "name": "balanceOf",
      "outputs": [
        {
          "internalType": "uint256",
          "name": "",
          "type": "uint256"
        }
      ],
      "payable": false,
      "stateMutability": "view",
      "type": "function"
    },
    {
      "constant": true,
      "inputs": [
        {
          "internalType": "uint256",
          "name": "tokenId",
          "type": "uint256"
        }
      ],
      "name": "getApproved",
      "outputs": [
        {
          "internalType": "address",
          "name": "",
          "type": "address"
        }
      ],
      "payable": false,
      "stateMutability": "view",
      "type": "function"
    },
    {
      "constant": true,
      "inputs": [
        {
          "internalType": "address",
          "name": "owner",
          "type": "address"
        },
        {
          "internalType": "address",
          "name": "operator",
          "type": "address"
        }
      ],
      "name": "isApprovedForAll",
      "outputs": [
        {
          "internalType": "bool",
          "name": "",
          "type": "bool"
        }
      ],
      "payable": false,
      "stateMutability": "view",
      "type": "function"
    },
    {
      "constant": true,
      "inputs": [],
      "name": "name",
      "outputs": [
        {
          "internalType": "string",
          "name": "",
          "type": "string"
        }
      ],
      "payable": false,
      "stateMutability": "view",
      "type": "function"
    },
    {
      "constant": true,
      "inputs": [
        {
          "internalType": "uint256",
          "name": "tokenId",
          "type": "uint256"
        }
      ],
      "name": "ownerOf",
      "outputs": [
        {
          "internalType": "address",
          "name": "",
          "type": "address"
        }
      ],
      "payable": false,
      "stateMutability": "view",
      "type": "function"
    },
    {
      "constant": false,
      "inputs": [
        {
          "internalType": "address",
          "name": "from",
          "type": "address"
        },
        {
          "internalType": "address",
          "name": "to",
          "type": "address"
        },
        {
          "internalType": "uint256",
          "name": "tokenId",
          "type": "uint256"
        }
      ],
      "name": "safeTransferFrom",
      "outputs": [],
      "payable": false,
      "stateMutability": "nonpayable",
      "type": "function"
    },
    {
      "constant": false,
      "inputs": [
        {
          "internalType": "address",
          "name": "from",
          "type": "address"
        },
        {
          "internalType": "address",
          "name": "to",
          "type": "address"
        },
        {
          "internalType": "uint256",
          "name": "tokenId",
          "type": "uint256"
        },
        {
          "internalType": "bytes",
          "name": "_data",
          "type": "bytes"
        }
      ],
      "name": "safeTransferFrom",
      "outputs": [],
      "payable": false,
      "stateMutability": "nonpayable",
      "type": "function"
    },
    {
      "constant": false,
      "inputs": [
        {
          "internalType": "address",
          "name": "to",
          "type": "address"
        },
        {
          "internalType": "bool",
          "name": "approved",
          "type": "bool"
        }
      ],
      "name": "setApprovalForAll",
      "outputs": [],
      "payable": false,
      "stateMutability": "nonpayable",
      "type": "function"
    },
    {
      "constant": true,
      "inputs": [
        {
          "internalType": "uint256",
          "name": "",
          "type": "uint256"
        }
      ],
      "name": "starsForSale",
      "outputs": [
        {
          "internalType": "uint256",
          "name": "",
          "type": "uint256"
        }
      ],
      "payable": false,
      "stateMutability": "view",
      "type": "function"
    },
    {
      "constant": true,
      "inputs": [
        {
          "internalType": "bytes4",
          "name": "interfaceId",
          "type": "bytes4"
        }
      ],
      "name": "supportsInterface",
      "outputs": [
        {
          "internalType": "bool",
          "name": "",
          "type": "bool"
        }
      ],
      "payable": false,
      "stateMutability": "view",
      "type": "function"
    },
    {
      "constant": true,
      "inputs": [],
      "name": "symbol",
      "outputs": [
        {
          "internalType": "string",
          "name": "",
          "type": "string"
        }
      ],
      "payable": false,
      "stateMutability": "view",
      "type": "function"
    },
    {
      "constant": true,
      "inputs": [
        {
          "internalType": "uint256",
          "name": "",
          "type": "uint256"
        }
      ],
      "name": "tokenIdToStarInfo",
      "outputs": [
        {
          "internalType": "string",
          "name": "name",
          "type": "string"
        }
      ],
      "payable": false,
      "stateMutability": "view",
      "type": "function"
    },
    {
      "constant": false,
      "inputs": [
        {
          "internalType": "address",
          "name": "from",
          "type": "address"
        },
        {
          "internalType": "address",
          "name": "to",
          "type": "address"
        },
        {
          "internalType": "uint256",
          "name": "tokenId",
          "type": "uint256"
        }
      ],
      "name": "transferFrom",
      "outputs": [],
      "payable": false,
      "stateMutability": "nonpayable",
      "type": "function"
    },
    {
      "constant": false,
      "inputs": [
        {
          "internalType": "string",
          "name": "_name",
          "type": "string"
        },
        {
          "internalType": "uint256",
          "name": "_tokenId",
          "type": "uint256"
        }
      ],
      "name": "createStar",
      "outputs": [],
      "payable": false,
      "stateMutability": "nonpayable",
      "type": "function"
    },
    {
      "constant": false,
      "inputs": [
        {
          "internalType": "uint256",
          "name": "_tokenId",
          "type": "uint256"
        },
        {
          "internalType": "uint256",
          "name": "_price",
          "type": "uint256"
        }
      ],
      "name": "putStarUpForSale",
      "outputs": [],
      "payable": false,
      "stateMutability": "nonpayable",
      "type": "function"
    },
    {
      "constant": false,
      "inputs": [
        {
          "internalType": "uint256",
          "name": "_tokenId",
          "type": "uint256"
        }
      ],
      "name": "buyStar",
      "outputs": [],
      "payable": true,
      "stateMutability": "payable",
      "type": "function"
    },
    {
      "constant": true,
      "inputs": [
        {
          "internalType": "uint256",
          "name": "_tokenId",
          "type": "uint256"
        }
      ],
      "name": "lookUptokenIdToStarInfo",
      "outputs": [
        {
          "internalType": "string",
          "name": "",
          "type": "string"
        }
      ],
      "payable": false,
      "stateMutability": "view",
      "type": "function"
    },
    {
      "constant": false,
      "inputs": [
        {
          "internalType": "uint256",
          "name": "_tokenId1",
          "type": "uint256"
        },
        {
          "internalType": "uint256",
          "name": "_tokenId2",
          "type": "uint256"
        }
      ],
      "name": "exchangeStars",
      "outputs": [],
      "payable": false,
      "stateMutability": "nonpayable",
      "type": "function"
    },
    {
      "constant": false,
      "inputs": [
        {
          "internalType": "address",
          "name": "_to1",
          "type": "address"
        },
        {
          "internalType": "uint256",
          "name": "_tokenId",
          "type": "uint256"
        }
      ],
      "name": "transferStar",
      "outputs": [],
      "payable": false,
      "stateMutability": "nonpayable",
      "type": "function"
    }
  ],
  "bytecode": "0x60806040526040518060400160405280600d81526020017f496e7465727374656c6c61727300000000000000000000000000000000000000815250600590805190602001906200005192919062000176565b506040518060400160405280600481526020017f494e545800000000000000000000000000000000000000000000000000000000815250600690805190602001906200009f92919062000176565b50620000b86301ffc9a760e01b620000d660201b60201c565b620000d06380ac58cd60e01b620000d660201b60201c565b62000225565b63ffffffff60e01b817bffffffffffffffffffffffffffffffffffffffffffffffffffffffff191614156200010a57600080fd5b6001600080837bffffffffffffffffffffffffffffffffffffffffffffffffffffffff19167bffffffffffffffffffffffffffffffffffffffffffffffffffffffff1916815260200190815260200160002060006101000a81548160ff02191690831515021790555050565b828054600181600116156101000203166002900490600052602060002090601f016020900481019282601f10620001b957805160ff1916838001178555620001ea565b82800160010185558215620001ea579182015b82811115620001e9578251825591602001919060010190620001cc565b5b509050620001f99190620001fd565b5090565b6200022291905b808211156200021e57600081600090555060010162000204565b5090565b90565b6120c880620002356000396000f3fe60806040526004361061011f5760003560e01c806342842e0e116100a0578063a22cb46511610064578063a22cb465146107ef578063b88d4fde1461084c578063d7830ccb1461095e578063e7152a5c14610a12578063e985e9c514610a6d5761011f565b806342842e0e146105325780636352211e146105ad57806370a082311461062857806395d89b411461068d5780639697c0a11461071d5761011f565b806315e0afa5116100e757806315e0afa51461034b5780631967fd981461039057806323b872dd146104445780632f1c34ef146104bf578063316a4361146104ed5761011f565b806301ffc9a7146101245780630564b1301461019657806306fdde03146101e5578063081812fc14610275578063095ea7b3146102f0575b600080fd5b34801561013057600080fd5b5061017c6004803603602081101561014757600080fd5b8101908080357bffffffffffffffffffffffffffffffffffffffffffffffffffffffff19169060200190929190505050610af6565b604051808215151515815260200191505060405180910390f35b3480156101a257600080fd5b506101cf600480360360208110156101b957600080fd5b8101908080359060200190929190505050610b5d565b6040518082815260200191505060405180910390f35b3480156101f157600080fd5b506101fa610b75565b6040518080602001828103825283818151815260200191508051906020019080838360005b8381101561023a57808201518184015260208101905061021f565b50505050905090810190601f1680156102675780820380516001836020036101000a031916815260200191505b509250505060405180910390f35b34801561028157600080fd5b506102ae6004803603602081101561029857600080fd5b8101908080359060200190929190505050610c13565b604051808273ffffffffffffffffffffffffffffffffffffffff1673ffffffffffffffffffffffffffffffffffffffff16815260200191505060405180910390f35b3480156102fc57600080fd5b506103496004803603604081101561031357600080fd5b81019080803573ffffffffffffffffffffffffffffffffffffffff16906020019092919080359060200190929190505050610c62565b005b34801561035757600080fd5b5061038e6004803603604081101561036e57600080fd5b810190808035906020019092919080359060200190929190505050610da3565b005b34801561039c57600080fd5b506103c9600480360360208110156103b357600080fd5b8101908080359060200190929190505050610eb0565b6040518080602001828103825283818151815260200191508051906020019080838360005b838110156104095780820151818401526020810190506103ee565b50505050905090810190601f1680156104365780820380516001836020036101000a031916815260200191505b509250505060405180910390f35b34801561045057600080fd5b506104bd6004803603606081101561046757600080fd5b81019080803573ffffffffffffffffffffffffffffffffffffffff169060200190929190803573ffffffffffffffffffffffffffffffffffffffff16906020019092919080359060200190929190505050610f66565b005b6104eb600480360360208110156104d557600080fd5b8101908080359060200190929190505050610f89565b005b3480156104f957600080fd5b506105306004803603604081101561051057600080fd5b810190808035906020019092919080359060200190929190505050611129565b005b34801561053e57600080fd5b506105ab6004803603606081101561055557600080fd5b81019080803573ffffffffffffffffffffffffffffffffffffffff169060200190929190803573ffffffffffffffffffffffffffffffffffffffff169060200190929190803590602001909291905050506111d1565b005b3480156105b957600080fd5b506105e6600480360360208110156105d057600080fd5b81019080803590602001909291905050506111f1565b604051808273ffffffffffffffffffffffffffffffffffffffff1673ffffffffffffffffffffffffffffffffffffffff16815260200191505060405180910390f35b34801561063457600080fd5b506106776004803603602081101561064b57600080fd5b81019080803573ffffffffffffffffffffffffffffffffffffffff16906020019092919050505061126d565b6040518082815260200191505060405180910390f35b34801561069957600080fd5b506106a26112ef565b6040518080602001828103825283818151815260200191508051906020019080838360005b838110156106e25780820151818401526020810190506106c7565b50505050905090810190601f16801561070f5780820380516001836020036101000a031916815260200191505b509250505060405180910390f35b34801561072957600080fd5b506107ed6004803603604081101561074057600080fd5b810190808035906020019064010000000081111561075d57600080fd5b82018360208201111561076f57600080fd5b8035906020019184600183028401116401000000008311171561079157600080fd5b91908080601f016020809104026020016040519081016040528093929190818152602001838380828437600081840152601f19601f8201169050808301925050505050505091929192908035906020019092919050505061138d565b005b3480156107fb57600080fd5b5061084a6004803603604081101561081257600080fd5b81019080803573ffffffffffffffffffffffffffffffffffffffff1690602001909291908035151590602001909291905050506113e9565b005b34801561085857600080fd5b5061095c6004803603608081101561086f57600080fd5b81019080803573ffffffffffffffffffffffffffffffffffffffff169060200190929190803573ffffffffffffffffffffffffffffffffffffffff16906020019092919080359060200190929190803590602001906401000000008111156108d657600080fd5b8201836020820111156108e857600080fd5b8035906020019184600183028401116401000000008311171561090a57600080fd5b91908080601f016020809104026020016040519081016040528093929190818152602001838380828437600081840152601f19601f820116905080830192505050505050509192919290505050611523565b005b34801561096a57600080fd5b506109976004803603602081101561098157600080fd5b8101908080359060200190929190505050611549565b6040518080602001828103825283818151815260200191508051906020019080838360005b838110156109d75780820151818401526020810190506109bc565b50505050905090810190601f168015610a045780820380516001836020036101000a031916815260200191505b509250505060405180910390f35b348015610a1e57600080fd5b50610a6b60048036036040811015610a3557600080fd5b81019080803573ffffffffffffffffffffffffffffffffffffffff16906020019092919080359060200190929190505050611601565b005b348015610a7957600080fd5b50610adc60048036036040811015610a9057600080fd5b81019080803573ffffffffffffffffffffffffffffffffffffffff169060200190929190803573ffffffffffffffffffffffffffffffffffffffff1690602001909291905050506116bf565b604051808215151515815260200191505060405180910390f35b6000806000837bffffffffffffffffffffffffffffffffffffffffffffffffffffffff19167bffffffffffffffffffffffffffffffffffffffffffffffffffffffff1916815260200190815260200160002060009054906101000a900460ff169050919050565b60086020528060005260406000206000915090505481565b60058054600181600116156101000203166002900480601f016020809104026020016040519081016040528092919081815260200182805460018160011615610100020316600290048015610c0b5780601f10610be057610100808354040283529160200191610c0b565b820191906000526020600020905b815481529060010190602001808311610bee57829003601f168201915b505050505081565b6000610c1e82611753565b610c2757600080fd5b6002600083815260200190815260200160002060009054906101000a900473ffffffffffffffffffffffffffffffffffffffff169050919050565b6000610c6d826111f1565b90508073ffffffffffffffffffffffffffffffffffffffff168373ffffffffffffffffffffffffffffffffffffffff161415610ca857600080fd5b8073ffffffffffffffffffffffffffffffffffffffff163373ffffffffffffffffffffffffffffffffffffffff161480610ce85750610ce781336116bf565b5b610cf157600080fd5b826002600084815260200190815260200160002060006101000a81548173ffffffffffffffffffffffffffffffffffffffff021916908373ffffffffffffffffffffffffffffffffffffffff160217905550818373ffffffffffffffffffffffffffffffffffffffff168273ffffffffffffffffffffffffffffffffffffffff167f8c5be1e5ebec7d5bd14f71427d1e84f3dd0314c0f7b2291e5b200ac8c7c3b92560405160405180910390a4505050565b6000610dae836111f1565b90506000610dbb836111f1565b90508173ffffffffffffffffffffffffffffffffffffffff163373ffffffffffffffffffffffffffffffffffffffff161480610e2257508073ffffffffffffffffffffffffffffffffffffffff163373ffffffffffffffffffffffffffffffffffffffff16145b610e94576040517f08c379a00000000000000000000000000000000000000000000000000000000081526004018080602001828103825260158152602001807f596f7520646f6e2774207468657365207374617273000000000000000000000081525060200191505060405180910390fd5b610e9f8282866117c5565b610eaa8183856117c5565b50505050565b6007602052806000526040600020600091509050806000018054600181600116156101000203166002900480601f016020809104026020016040519081016040528092919081815260200182805460018160011615610100020316600290048015610f5c5780601f10610f3157610100808354040283529160200191610f5c565b820191906000526020600020905b815481529060010190602001808311610f3f57829003601f168201915b5050505050905081565b610f703382611a26565b610f7957600080fd5b610f848383836117c5565b505050565b6000600860008381526020019081526020016000205411610ff5576040517f08c379a000000000000000000000000000000000000000000000000000000000815260040180806020018281038252602d815260200180612034602d913960400191505060405180910390fd5b6000600860008381526020019081526020016000205490506000611018836111f1565b9050813411611072576040517f08c379a00000000000000000000000000000000000000000000000000000000081526004018080602001828103825260338152602001806120616033913960400191505060405180910390fd5b61107d8133856117c5565b600061108882611abb565b90508073ffffffffffffffffffffffffffffffffffffffff166108fc849081150290604051600060405180830381858888f193505050501580156110d0573d6000803e3d6000fd5b5082341115611123573373ffffffffffffffffffffffffffffffffffffffff166108fc8434039081150290604051600060405180830381858888f19350505050158015611121573d6000803e3d6000fd5b505b50505050565b3373ffffffffffffffffffffffffffffffffffffffff16611149836111f1565b73ffffffffffffffffffffffffffffffffffffffff16146111b5576040517f08c379a000000000000000000000000000000000000000000000000000000000815260040180806020018281038252602881526020018061200c6028913960400191505060405180910390fd5b8060086000848152602001908152602001600020819055505050565b6111ec83838360405180602001604052806000815250611523565b505050565b6000806001600084815260200190815260200160002060009054906101000a900473ffffffffffffffffffffffffffffffffffffffff169050600073ffffffffffffffffffffffffffffffffffffffff168173ffffffffffffffffffffffffffffffffffffffff16141561126457600080fd5b80915050919050565b60008073ffffffffffffffffffffffffffffffffffffffff168273ffffffffffffffffffffffffffffffffffffffff1614156112a857600080fd5b600360008373ffffffffffffffffffffffffffffffffffffffff1673ffffffffffffffffffffffffffffffffffffffff168152602001908152602001600020549050919050565b60068054600181600116156101000203166002900480601f0160208091040260200160405190810160405280929190818152602001828054600181600116156101000203166002900480156113855780601f1061135a57610100808354040283529160200191611385565b820191906000526020600020905b81548152906001019060200180831161136857829003601f168201915b505050505081565b611395611f53565b6040518060200160405280848152509050806007600084815260200190815260200160002060008201518160000190805190602001906113d6929190611f66565b509050506113e43383611ac5565b505050565b3373ffffffffffffffffffffffffffffffffffffffff168273ffffffffffffffffffffffffffffffffffffffff16141561142257600080fd5b80600460003373ffffffffffffffffffffffffffffffffffffffff1673ffffffffffffffffffffffffffffffffffffffff16815260200190815260200160002060008473ffffffffffffffffffffffffffffffffffffffff1673ffffffffffffffffffffffffffffffffffffffff16815260200190815260200160002060006101000a81548160ff0219169083151502179055508173ffffffffffffffffffffffffffffffffffffffff163373ffffffffffffffffffffffffffffffffffffffff167f17307eab39ab6107e8899845ad3d59bd9653f200f220920489ca2b5937696c3183604051808215151515815260200191505060405180910390a35050565b61152e848484610f66565b61153a84848484611c5a565b61154357600080fd5b50505050565b6060600760008381526020019081526020016000206000018054600181600116156101000203166002900480601f0160208091040260200160405190810160405280929190818152602001828054600181600116156101000203166002900480156115f55780601f106115ca576101008083540402835291602001916115f5565b820191906000526020600020905b8154815290600101906020018083116115d857829003601f168201915b50505050509050919050565b600061160c826111f1565b90508073ffffffffffffffffffffffffffffffffffffffff163373ffffffffffffffffffffffffffffffffffffffff16146116af576040517f08c379a000000000000000000000000000000000000000000000000000000000815260040180806020018281038252601a8152602001807f596f7520646f6e2774206f776e2074686573652073746172732100000000000081525060200191505060405180910390fd5b6116ba3384846117c5565b505050565b6000600460008473ffffffffffffffffffffffffffffffffffffffff1673ffffffffffffffffffffffffffffffffffffffff16815260200190815260200160002060008373ffffffffffffffffffffffffffffffffffffffff1673ffffffffffffffffffffffffffffffffffffffff16815260200190815260200160002060009054906101000a900460ff16905092915050565b6000806001600084815260200190815260200160002060009054906101000a900473ffffffffffffffffffffffffffffffffffffffff169050600073ffffffffffffffffffffffffffffffffffffffff168173ffffffffffffffffffffffffffffffffffffffff161415915050919050565b8273ffffffffffffffffffffffffffffffffffffffff166117e5826111f1565b73ffffffffffffffffffffffffffffffffffffffff161461180557600080fd5b600073ffffffffffffffffffffffffffffffffffffffff168273ffffffffffffffffffffffffffffffffffffffff16141561183f57600080fd5b61184881611e43565b61189b6001600360008673ffffffffffffffffffffffffffffffffffffffff1673ffffffffffffffffffffffffffffffffffffffff16815260200190815260200160002054611f0190919063ffffffff16565b600360008573ffffffffffffffffffffffffffffffffffffffff1673ffffffffffffffffffffffffffffffffffffffff168152602001908152602001600020819055506119316001600360008573ffffffffffffffffffffffffffffffffffffffff1673ffffffffffffffffffffffffffffffffffffffff16815260200190815260200160002054611f2190919063ffffffff16565b600360008473ffffffffffffffffffffffffffffffffffffffff1673ffffffffffffffffffffffffffffffffffffffff16815260200190815260200160002081905550816001600083815260200190815260200160002060006101000a81548173ffffffffffffffffffffffffffffffffffffffff021916908373ffffffffffffffffffffffffffffffffffffffff160217905550808273ffffffffffffffffffffffffffffffffffffffff168473ffffffffffffffffffffffffffffffffffffffff167fddf252ad1be2c89b69c2b068fc378daa952ba7f163c4a11628f55a4df523b3ef60405160405180910390a4505050565b600080611a32836111f1565b90508073ffffffffffffffffffffffffffffffffffffffff168473ffffffffffffffffffffffffffffffffffffffff161480611aa157508373ffffffffffffffffffffffffffffffffffffffff16611a8984610c13565b73ffffffffffffffffffffffffffffffffffffffff16145b80611ab25750611ab181856116bf565b5b91505092915050565b6000819050919050565b600073ffffffffffffffffffffffffffffffffffffffff168273ffffffffffffffffffffffffffffffffffffffff161415611aff57600080fd5b611b0881611753565b15611b1257600080fd5b816001600083815260200190815260200160002060006101000a81548173ffffffffffffffffffffffffffffffffffffffff021916908373ffffffffffffffffffffffffffffffffffffffff160217905550611bb76001600360008573ffffffffffffffffffffffffffffffffffffffff1673ffffffffffffffffffffffffffffffffffffffff16815260200190815260200160002054611f2190919063ffffffff16565b600360008473ffffffffffffffffffffffffffffffffffffffff1673ffffffffffffffffffffffffffffffffffffffff16815260200190815260200160002081905550808273ffffffffffffffffffffffffffffffffffffffff16600073ffffffffffffffffffffffffffffffffffffffff167fddf252ad1be2c89b69c2b068fc378daa952ba7f163c4a11628f55a4df523b3ef60405160405180910390a45050565b6000611c7b8473ffffffffffffffffffffffffffffffffffffffff16611f40565b611c885760019050611e3b565b60008473ffffffffffffffffffffffffffffffffffffffff1663150b7a02338887876040518563ffffffff1660e01b8152600401808573ffffffffffffffffffffffffffffffffffffffff1673ffffffffffffffffffffffffffffffffffffffff1681526020018473ffffffffffffffffffffffffffffffffffffffff1673ffffffffffffffffffffffffffffffffffffffff16815260200183815260200180602001828103825283818151815260200191508051906020019080838360005b83811015611d63578082015181840152602081019050611d48565b50505050905090810190601f168015611d905780820380516001836020036101000a031916815260200191505b5095505050505050602060405180830381600087803b158015611db257600080fd5b505af1158015611dc6573d6000803e3d6000fd5b505050506040513d6020811015611ddc57600080fd5b8101908080519060200190929190505050905063150b7a0260e01b7bffffffffffffffffffffffffffffffffffffffffffffffffffffffff1916817bffffffffffffffffffffffffffffffffffffffffffffffffffffffff1916149150505b949350505050565b600073ffffffffffffffffffffffffffffffffffffffff166002600083815260200190815260200160002060009054906101000a900473ffffffffffffffffffffffffffffffffffffffff1673ffffffffffffffffffffffffffffffffffffffff1614611efe5760006002600083815260200190815260200160002060006101000a81548173ffffffffffffffffffffffffffffffffffffffff021916908373ffffffffffffffffffffffffffffffffffffffff1602179055505b50565b600082821115611f1057600080fd5b600082840390508091505092915050565b600080828401905083811015611f3657600080fd5b8091505092915050565b600080823b905060008111915050919050565b6040518060200160405280606081525090565b828054600181600116156101000203166002900490600052602060002090601f016020900481019282601f10611fa757805160ff1916838001178555611fd5565b82800160010185558215611fd5579182015b82811115611fd4578251825591602001919060010190611fb9565b5b509050611fe29190611fe6565b5090565b61200891905b80821115612004576000816000905550600101611fec565b5090565b9056fe596f752063616e27742073616c6520612073746172207468617420796f7520646f6e2774206f776e54686520537461722073686f756c6420626520757020666f722073616c65206f6e20537461724e6f7461727921596f75206e65656420746f206861766520656e6f75676820457468657220746f2070757263686173652074686973206f6e6521a265627a7a7231582007bb69bdc1f39b5f281fa94b80f7e3c4fe1bfdf34114ac3482f6e4c174b0601764736f6c63430005100032",
  "source": "pragma solidity >=0.4.24;\n\n//Importing openzeppelin-solidity ERC-721 implemented Standard\nimport \"../node_modules/openzeppelin-solidity/contracts/token/ERC721/ERC721.sol\";\n\n// StarNotary Contract declaration inheritance the ERC721 openzeppelin implementation\ncontract StarNotary is ERC721 {\n\n    // Star data\n    struct Star {\n        string name;\n    }\n\n    // Implement Task 1 Add a name and symbol properties\n    // name: Is a short name to your token\n    string public name = \"Interstellars\";\n    // symbol: Is a short string like 'USD' -> 'American Dollar'\n    string public symbol = \"INTX\";\n\n    // mapping the Star with the Owner Address\n    mapping(uint256 => Star) public tokenIdToStarInfo;\n    // mapping the TokenId and price\n    mapping(uint256 => uint256) public starsForSale;\n    // Create Star using the Struct\n    function createStar(string memory _name, uint256 _tokenId) public { // Passing the name and tokenId as a parameters\n        Star memory newStar = Star(_name); // Star is an struct so we are creating a new Star\n        tokenIdToStarInfo[_tokenId] = newStar; // Creating in memory the Star -> tokenId mapping\n        _mint(msg.sender, _tokenId); // _mint assign the the star with _tokenId to the sender address (ownership)\n    }\n\n    // Putting a Star for sale (Adding the star tokenid into the mapping starsForSale, first verify that the sender is the owner)\n    function putStarUpForSale(uint256 _tokenId, uint256 _price) public {\n        require(ownerOf(_tokenId) == msg.sender, \"You can't sale a star that you don't own\");\n        starsForSale[_tokenId] = _price;\n    }\n\n\n    // Function that allows you to convert an address into a payable address\n    function _make_payable(address x) internal pure returns (address payable) {\n        return address(uint160(x));\n    }\n\n    function buyStar(uint256 _tokenId) public  payable {\n        require(starsForSale[_tokenId] > 0, \"The Star should be up for sale on StarNotary!\");\n        uint256 starCost = starsForSale[_tokenId];\n        address ownerAddress = ownerOf(_tokenId);\n        require(msg.value > starCost, \"You need to have enough Ether to purchase this one!\");\n\n        // We can't use _addTokenTo or_removeTokenFrom functions, now we have to use _transferFrom\n        _transferFrom(ownerAddress, msg.sender, _tokenId);\n\n        // We need to make this conversion to be able to use transfer() function to transfer ethers\n        address payable ownerAddressPayable = _make_payable(ownerAddress);\n        ownerAddressPayable.transfer(starCost);\n        if(msg.value > starCost) {\n            msg.sender.transfer(msg.value - starCost);\n        }\n    }\n\n    // Implement Task 1 lookUptokenIdToStarInfo\n    function lookUptokenIdToStarInfo (uint _tokenId) public view returns (string memory) {\n        //1. You should return the Star saved in tokenIdToStarInfo mapping\n        return tokenIdToStarInfo[_tokenId].name;\n    }\n\n    // Implement Task 1 Exchange Stars function\n    function exchangeStars(uint256 _tokenId1, uint256 _tokenId2) public {\n        //1. Passing to star tokenId you will need to check if the owner of _tokenId1 or _tokenId2 is the sender\n        address star1Owner = ownerOf(_tokenId1);\n        address star2Owner = ownerOf(_tokenId2);\n        //2. You don't have to check for the price of the token (star)\n        require(msg.sender == star1Owner || msg.sender == star2Owner, \"You don't these stars\");\n        //3. Get the owner of the two tokens (ownerOf(_tokenId1), ownerOf(_tokenId1)\n        //4. Use _transferFrom function to exchange the tokens.\n        _transferFrom(star1Owner, star2Owner, _tokenId1);\n        _transferFrom(star2Owner, star1Owner, _tokenId2);\n    }\n\n    // Implement Task 1 Transfer Stars\n    function transferStar(address _to1, uint256 _tokenId) public {\n        //1. Check if the sender is the ownerOf(_tokenId)\n        address starOwner = ownerOf(_tokenId);\n        require(msg.sender == starOwner, \"You don't own these stars!\");\n        //2. Use the transferFrom(from, to, tokenId); function to transfer the Star\n        _transferFrom(msg.sender, _to1, _tokenId);\n    }\n\n}",
  "sourcePath": "/Users/interstellarx/Documents/GitHub/Blockchain-Developer-Nanodegree-Udacity/03-Ethereum-Smart-Contracts-Tokens-Dapps/Project5_CryptoStar_Dapp/contracts/StarNotary.sol",
  "compiler": {
    "name": "solc",
    "version": "0.5.16+commit.9c3226ce.Emscripten.clang"
  },
  "schemaVersion": "3.0.23",
  "updatedAt": "2020-05-10T20:20:19.009Z",
  "devdoc": {
    "methods": {
      "approve(address,uint256)": {
        "details": "Approves another address to transfer the given token ID The zero address indicates there is no approved address. There can only be one approved address per token at a given time. Can only be called by the token owner or an approved operator.",
        "params": {
          "to": "address to be approved for the given token ID",
          "tokenId": "uint256 ID of the token to be approved"
        }
      },
      "balanceOf(address)": {
        "details": "Gets the balance of the specified address",
        "params": {
          "owner": "address to query the balance of"
        },
        "return": "uint256 representing the amount owned by the passed address"
      },
      "getApproved(uint256)": {
        "details": "Gets the approved address for a token ID, or zero if no address set Reverts if the token ID does not exist.",
        "params": {
          "tokenId": "uint256 ID of the token to query the approval of"
        },
        "return": "address currently approved for the given token ID"
      },
      "isApprovedForAll(address,address)": {
        "details": "Tells whether an operator is approved by a given owner",
        "params": {
          "operator": "operator address which you want to query the approval of",
          "owner": "owner address which you want to query the approval of"
        },
        "return": "bool whether the given operator is approved by the given owner"
      },
      "ownerOf(uint256)": {
        "details": "Gets the owner of the specified token ID",
        "params": {
          "tokenId": "uint256 ID of the token to query the owner of"
        },
        "return": "owner address currently marked as the owner of the given token ID"
      },
      "safeTransferFrom(address,address,uint256)": {
        "details": "Safely transfers the ownership of a given token ID to another address If the target address is a contract, it must implement `onERC721Received`, which is called upon a safe transfer, and return the magic value `bytes4(keccak256(\"onERC721Received(address,address,uint256,bytes)\"))`; otherwise, the transfer is reverted.     * Requires the msg sender to be the owner, approved, or operator",
        "params": {
          "from": "current owner of the token",
          "to": "address to receive the ownership of the given token ID",
          "tokenId": "uint256 ID of the token to be transferred"
        }
      },
      "safeTransferFrom(address,address,uint256,bytes)": {
        "details": "Safely transfers the ownership of a given token ID to another address If the target address is a contract, it must implement `onERC721Received`, which is called upon a safe transfer, and return the magic value `bytes4(keccak256(\"onERC721Received(address,address,uint256,bytes)\"))`; otherwise, the transfer is reverted. Requires the msg sender to be the owner, approved, or operator",
        "params": {
          "_data": "bytes data to send along with a safe transfer check",
          "from": "current owner of the token",
          "to": "address to receive the ownership of the given token ID",
          "tokenId": "uint256 ID of the token to be transferred"
        }
      },
      "setApprovalForAll(address,bool)": {
        "details": "Sets or unsets the approval of a given operator An operator is allowed to transfer all tokens of the sender on their behalf",
        "params": {
          "approved": "representing the status of the approval to be set",
          "to": "operator address to set the approval"
        }
      },
      "supportsInterface(bytes4)": {
        "details": "implement supportsInterface(bytes4) using a lookup table"
      },
      "transferFrom(address,address,uint256)": {
        "details": "Transfers the ownership of a given token ID to another address Usage of this method is discouraged, use `safeTransferFrom` whenever possible Requires the msg sender to be the owner, approved, or operator",
        "params": {
          "from": "current owner of the token",
          "to": "address to receive the ownership of the given token ID",
          "tokenId": "uint256 ID of the token to be transferred"
        }
      }
    }
  },
  "userdoc": {
    "methods": {}
  }
}